:10C00000004809109D990300F9E90600D59903003D
:10C01000D5990300D5990300D599030000000000CD
:10C02000000000000000000000000000F593030085
:10C03000D5990300000000004D930300357B0600F6
:10C040005D9903005D9903005D9903005D9903000C
:10C050005D9903005D9903005D9903005D990300FC
:10C060005D9903005D9903005D9903005D990300EC
:10C070005D9903005D9903005D9903005D990300DC
:10C080005D9903005D9903005D9903005D990300CC
:10C090005D9903005D9903005D9903005D990300BC
:10C0A0005D9903005D9903005D9903005D990300AC
:10C0B0005D9903005D9903005D9903005D9903009C
:08C0C0005D9903005D99030086
:08C0C800FFFFFFFFFFFFFFFF78
:10C0D00001F0FF01102A2BDB10F0070F08D010F839
:10C0E000013B013A8B422DD010F0070F42B3F6D13D
:10C0F000F0B441EA012141EA014122F007047FF056
:10C1000000070023F0E80256083C85EA010586EAAC
:10C11000010685FA47F5A3FA87F586FA47F6A5FAE8
:10C1200087F68EB9EED1F0BC01F0FF0102F00702F4
:10C1300032B110F8013B013A83EA010313B1F8D19F
:10C140000020704701387047002D06BF3546033880
:10C15000073815F0010F07D1013015F4807F02BFB9
:10C16000013015F4C03F0130F0BC0138704700BF0A
:10C1700081F0004102E000BF83F0004330B54FEA98
:10C1800041044FEA430594EA050F08BF90EA020F05
:10C190001FBF54EA000C55EA020C7FEA645C7FEA98
:10C1A000655C00F0E2804FEA5454D4EB5555B8BFBB
:10C1B0006D420CDD2C4480EA020281EA030382EA2C
:10C1C000000083EA010180EA020281EA0303362DBE
:10C1D00088BF30BD11F0004F4FEA01314FF4801C91
:10C1E0004CEA113102D0404261EB410113F0004FA3
:10C1F0004FEA03334CEA133302D0524263EB43035A
:10C2000094EA050F00F0A780A4F10104D5F1200EF7
:10C210000DDB02FA0EFC22FA05F2801841F1000152
:10C2200003FA0EF2801843FA05F359410EE0A5F126
:10C2300020050EF1200E012A03FA0EFC28BF4CF057
:10C24000020C43FA05F3C01851EBE37101F000450D
:10C2500007D54FF0000EDCF1000C7EEB00006EEB1A
:10C260000101B1F5801F1BD3B1F5001F0CD34908A4
:10C270005FEA30004FEA3C0C04F101044FEA4452FB
:10C2800012F5800F80F09A80BCF1004F08BF5FEA82
:10C29000500C50F1000041EB045141EA050130BD62
:10C2A0005FEA4C0C404141EB0101013C28BFB1F574
:10C2B000801FE9D291F0000F04BF01460020B1FABF
:10C2C00081F308BF2033A3F10B03B3F120020CDA92
:10C2D0000C3208DD02F1140CC2F10C0201FA0CF070
:10C2E00021FA02F10CE002F11402D8BFC2F1200CD5
:10C2F00001FA02F120FA0CFCDCBF41EA0C0190408B
:10C30000E41AA2BF01EB0451294330BD6FEA0404D3
:10C310001F3C1CDA0C340EDC04F11404C4F12002BE
:10C3200020FA04F001FA02F340EA030021FA04F3D0
:10C3300045EA030130BDC4F10C04C4F1200220FA27
:10C3400002F001FA04F340EA0300294630BD21FA65
:10C3500004F0294630BD94F0000F83F4801306BF2B
:10C3600081F480110134013D4EE77FEA645C18BF1F
:10C370007FEA655C29D094EA050F08BF90EA020FB6
:10C3800005D054EA000C04BF1946104630BD91EAAE
:10C39000030F1EBF0021002030BD5FEA545C05D1B1
:10C3A0004000494128BF41F0004130BD14F58004F0
:10C3B0003CBF01F5801130BD01F0004545F0FE4164
:10C3C00041F470014FF0000030BD7FEA645C1ABF99
:10C3D000194610467FEA655C1CBF0B46024650EAD0
:10C3E000013406BF52EA033591EA030F41F40021FC
:10C3F00030BD00BF90F0000F04BF0021704730B582
:10C400004FF4806404F132044FF000054FF0000156
:10C4100050E700BF90F0000F04BF0021704730B517
:10C420004FF4806404F1320410F0004548BF4042EC
:10C430004FF000013EE700BF42004FEAE2014FEA41
:10C4400031014FEA02701FBF12F07F4393F07F4F1C
:10C4500081F06051704732F07F4208BF704793F01F
:10C460007F4F04BF41F40021704730B54FF4607432
:10C4700001F0004521F000411CE700BF50EA010235
:10C4800008BF704730B54FF000050AE050EA0102DE
:10C4900008BF704730B511F0004502D5404261EB4E
:10C4A00041014FF4806404F132045FEA915C3FF48F
:10C4B000D8AE4FF003025FEADC0C18BF03325FEA2C
:10C4C000DC0C18BF033202EBDC02C2F1200300FADD
:10C4D00003FC20FA02F001FA03FE40EA0E0021FA02
:10C4E00002F11444BDE600BF70B54FF0FF0C4CF4F0
:10C4F000E06C1CEA11541DBF1CEA135594EA0C0FA2
:10C5000095EA0C0F00F0DEF82C4481EA030621EADC
:10C510004C5123EA4C5350EA013518BF52EA033517
:10C5200041F4801143F4801338D0A0FB02CE4FF0C9
:10C530000005E1FB02E506F00042E0FB03E54FF0F9
:10C540000006E1FB03569CF0000F18BF4EF0010EF1
:10C55000A4F1FF04B6F5007F64F5407404D25FEAED
:10C560004E0E6D4146EB060642EAC62141EA5551A0
:10C570004FEAC52040EA5E504FEACE2EB4F1FD0CE2
:10C5800088BFBCF5E06F1ED8BEF1004F08BF5FEA60
:10C59000500E50F1000041EB045170BD06F0004612
:10C5A00046EA010140EA020081EA0301B4EB5C04BF
:10C5B000C2BFD4EB0C0541EA045170BD41F48011B7
:10C5C0004FF0000E013C00F3AB8014F1360FDEBFDC
:10C5D000002001F0004170BDC4F10004203C35DAB8
:10C5E0000C341BDC04F11404C4F1200500FA05F33B
:10C5F00020FA04F001FA05F240EA020001F00042DC
:10C6000021F0004110EBD37021FA04F642EB060151
:10C610005EEA430E08BF20EAD37070BDC4F10C047B
:10C62000C4F1200500FA04F320FA05F001FA04F23F
:10C6300040EA020001F0004110EBD37041F100012B
:10C640005EEA430E08BF20EAD37070BDC4F1200536
:10C6500000FA05F24EEA020E20FA04F301FA05F29E
:10C6600043EA020321FA04F001F0004121FA04F246
:10C6700020EA020000EBD3705EEA430E08BF20EA16
:10C68000D37070BD94F0000F0FD101F00046400050
:10C6900041EB010111F4801F08BF013CF7D041EAD2
:10C6A000060195F0000F18BF704703F000465200D6
:10C6B00043EB030313F4801F08BF013DF7D043EAA7
:10C6C0000603704794EA0C0F0CEA135518BF95EA5D
:10C6D0000C0F0CD050EA410618BF52EA4306D1D1E4
:10C6E00081EA030101F000414FF0000070BD50EA03
:10C6F000410606BF1046194652EA430619D094EA8D
:10C700000C0F02D150EA013613D195EA0C0F05D176
:10C7100052EA03361CBF104619460AD181EA0301CA
:10C7200001F0004141F0FE4141F470014FF0000082
:10C7300070BD41F0FE4141F4780170BD70B54FF01D
:10C74000FF0C4CF4E06C1CEA11541DBF1CEA13559D
:10C7500094EA0C0F95EA0C0F00F0A7F8A4EB05047F
:10C7600081EA030E52EA03354FEA013100F0888076
:10C770004FEA03334FF0805545EA131343EA12633F
:10C780004FEA022245EA111545EA10654FEA0026F4
:10C790000EF000419D4208BF964244F1FD0404F5AD
:10C7A000407402D25B084FEA3202B61A65EB030509
:10C7B0005B084FEA32024FF480104FF4002CB6EBC6
:10C7C000020E75EB030E22BFB61A754640EA0C0046
:10C7D0005B084FEA3202B6EB020E75EB030E22BF86
:10C7E000B61A754640EA5C005B084FEA3202B6EBC7
:10C7F000020E75EB030E22BFB61A754640EA9C0086
:10C800005B084FEA3202B6EB020E75EB030E22BF55
:10C81000B61A754640EADC0055EA060E18D04FEA13
:10C82000051545EA16754FEA06164FEAC30343EAB3
:10C8300052734FEAC2025FEA1C1CC0D111F4801F80
:10C840000BD141EA00014FF000004FF0004CB6E779
:10C8500011F4801F04BF01430020B4F1FD0C88BF18
:10C86000BCF5E06F3FF6AFAEB5EB030C04BFB6EB23
:10C87000020C5FEA500C50F1000041EB045170BD16
:10C880000EF0004E4EEA113114EB5C04C2BFD4EB43
:10C890000C0541EA045170BD41F480114FF0000EC7
:10C8A000013C90E645EA060E8DE60CEA135594EA43
:10C8B0000C0F08BF95EA0C0F3FF43BAF94EA0C0F46
:10C8C0000AD150EA01347FF434AF95EA0C0F7FF4BB
:10C8D00025AF104619462CE795EA0C0F06D152EA0F
:10C8E00003353FF4FDAE1046194622E750EA4106F3
:10C8F00018BF52EA43067FF4C5AE50EA41047FF404
:10C900000DAF52EA43057FF4EBAE12E74FF0FF3C68
:10C9100006E000BF4FF0010C02E000BF4FF0010C39
:10C920004DF804CD4FEA410C7FEA6C5C4FEA430CB2
:10C9300018BF7FEA6C5C1BD001B050EA410C0CBF01
:10C9400052EA430C91EA030F02BF90EA020F002063
:10C95000704710F1000F91EA030F58BF994208BFCA
:10C9600090422CBFD8176FEAE37040F00100704787
:10C970004FEA410C7FEA6C5C02D150EA013C07D1DE
:10C980004FEA430C7FEA6C5CD6D152EA033CD3D029
:10C990005DF8040B704700BF8446104662468C4623
:10C9A0001946634600E000BF01B5FFF7B7FF002856
:10C9B00048BF10F1000F01BD4DF808EDFFF7F4FF7F
:10C9C0000CBF012000205DF808FB00BF4DF808ED0A
:10C9D000FFF7EAFF34BF012000205DF808FB00BF2D
:10C9E0004DF808EDFFF7E0FF94BF012000205DF84F
:10C9F00008FB00BF4DF808EDFFF7CEFF94BF012004
:10CA000000205DF808FB00BF4DF808EDFFF7C4FFFC
:10CA100034BF012000205DF808FB00BF4FEA41024F
:10CA200012F5001215D211D56FF47873B3EB625280
:10CA300012D94FEAC12343F0004343EA505311F0A7
:10CA4000004F23FA02F018BF404270474FF0000039
:10CA5000704750EA013005D111F0004008BF6FF077
:10CA6000004070474FF00000704700BF4FEA41029E
:10CA7000B2F1E04324BFB3F5001CDCF1FE5C0DD93C
:10CA800001F0004C4FEAC0024CEA5070B2F1004F86
:10CA900040EB830008BF20F00100704711F0804F89
:10CAA00021D113F13872BCBF01F00040704741F44E
:10CAB00080114FEA5252C2F11802C2F1200C10FA52
:10CAC0000CF320FA02F018BF40F001004FEAC12336
:10CAD0004FEAD32303FA0CFC40EA0C0023FA02F3DA
:10CAE0004FEA4303CCE77FEA625307D150EA0133B0
:10CAF0001EBF4FF0FE4040F44000704701F0004080
:10CB000040F0FE4040F40000704700BF7BB972B9AE
:10CB10000029BEBF00204FF0004106E008BF0028FA
:10CB20001CBF6FF000414FF0FF3000F057B8ADF17F
:10CB3000080C6DE904CE002909DB002B1ADB00F09C
:10CB400078F8DDF804E0DDE9022304B070474042E4
:10CB500061EB4101002B1BDB00F06BF8DDF804E01A
:10CB6000DDE9022304B0404261EB4101524263EB34
:10CB700043037047524263EB430300F05AF8DDF879
:10CB800004E0DDE9022304B0404261EB410170475B
:10CB9000524263EB430300F04CF8DDF804E0DDE9BA
:10CBA000022304B0524263EB4303704753B94AB9BE
:10CBB000002908BF00281CBF4FF0FF314FF0FF30A5
:10CBC00000F00CB8ADF1080C6DE904CE00F031F8BE
:10CBD000DDF804E0DDE9022304B07047704700BFD0
:10CBE0004FEA410C7FEA6C5C02D150EA013C0AD169
:10CBF0004FEA430C7FEA6C5C02D152EA033C02D15B
:10CC00004FF0000070474FF001007047430803F0F9
:10CC10005533C01A00F03333800800F03330184425
:10CC200000EB10104FF0013300F00F305843000EAE
:10CC300070472DE9F04F099E88468E4615460446FA
:10CC40001946002B40F0C7804245B2FA82F746D918
:10CC50004FB1C7F1200C08FA07F320FA0CFCBD40D5
:10CC60004CEA030EBC404FEA15481FFA85FCBEFB98
:10CC7000F8F9220C08FB19E309FB0CFA42EA03431A
:10CC80009A4528D9EB1809F1FF3004D29A4502D908
:10CC9000A9F102002B44A3EB0A03A4B2B3FBF8F200
:10CCA00008FB123302FB0CFC44EA0344A44514D9EC
:10CCB0002C1902F1FF3303D2A44501D9931E2C4451
:10CCC000A4EB0C0443EA00401EB1FC400023346096
:10CCD0007360BDE8F08F4846DDE71346F0E702B920
:10CCE000FFDE8FBBA8EB020301214FEA154EAAB26B
:10CCF000B3FBFEFC200C0EFB1C330CFB02F840EADD
:10CD00000343984563D9EB180CF1FF3004D29845E2
:10CD100002D9ACF102002B44A3EB0803A4B2B3FB8D
:10CD2000FEFC0EFB1C330CFB02F244EA0344A2425D
:10CD30004FD92C190CF1FF3304D2A24202D9ACF125
:10CD400002032C44A41ABDE7C7F1200C28FA0CF901
:10CD500008FA07F320FA0CFCBD404CEA03024FEA44
:10CD6000154EABB2B9FBFEFC110C0EFB1C900CFB7C
:10CD700003F841EA0040804504FA07F423D9281853
:10CD80000CF1FF3104D2804502D9ACF102012844F4
:10CD9000A0EB080092B2B0FBFEFC0EFB1C000CFBEB
:10CDA00003F842EA004398450FD9EB180CF1FF3223
:10CDB00004D2984502D9ACF102022B44A3EB08033C
:10CDC00042EA014191E76146E2E76246F6E76046E2
:10CDD000A2E76346B6E7434505D90EB1C6E90008A8
:10CDE0000021084675E7B3FA83FCBCF1000F10D1AF
:10CDF000434501D382420AD8841A68EB0303012019
:10CE00009E46002E68D0C6E9004E002161E76046CC
:10CE1000F7E7CCF1200E03FA0CF322FA0EF41C43D0
:10CE200020FA0EF108FA0CF328FA0EFB19434FEA28
:10CE3000144902FA0CF5BBFBF9F8A3B209FB18BBC5
:10CE40000A0C08FB03FA42EA0B42924500FA0CF77F
:10CE50003ED9A21808F1FF3004D2924502D9A8F1B8
:10CE600002002244A2EB0A0289B2B2FBF9F809FBE4
:10CE7000182208FB03F341EA024293422AD9A2187E
:10CE800008F1FF3104D2934202D9A8F102012244F1
:10CE900041EA0040A0FB0598D21A42454B46414664
:10CEA00002D306D14F4504D2B9EB050368EB040168
:10CEB00001388EB1FC1A62EB010707FA0EFE24FA64
:10CEC0000CF34EEA030327FA0CF7C6E900379CE798
:10CED0004046C7E74146DBE73146FAE610F8012B4A
:10CEE00011F8013B012A28BF9A42F7D0D01A7047A7
:10CEF000034613F8012B002AFBD1181A013870479A
:10CF00002DE9F04F2DED028B91B007460E461546E8
:10CF1000002209A9284657F0B3F9099B1B78002B7A
:10CF200064D10446A1B2B3681B690AAA3046984787
:10CF3000002856DB372C70DC032C04D0072C02D0E1
:10CF40000B2C40F087800A98FFF764FA80468946E8
:10CF50000B98FFF75FFA50A3D3E90023FFF7EEFB2E
:10CF600002460B4640464946FFF708F982468B4683
:10CF70000C98FFF74FFA804689460D98FFF74AFA5A
:10CF800045A3D3E90023FFF7D9FB02460B464046F1
:10CF90004946FFF7F3F841EC180B0E98FFF73AFA01
:10CFA000804689460F98FFF735FA3BA3D3E9002363
:10CFB000FFF7C4FB02460B4640464946FFF7DEF842
:10CFC000CDE906018DED048BCDE902AB344B53F86E
:10CFD000243000932346334A0021384659F0E1FCBF
:10CFE000002011B0BDEC028BBDE8F08F0024372C7F
:10CFF00008DC2B4B53F824102846FFF76FFF08B1CD
:10D000000134F4E7382C8DD12B46274A02213846CB
:10D0100059F0C7FC6FF08500E3E70A98FFF7FAF9CB
:10D02000804689460B98FFF7F5F91BA3D3E9002347
:10D03000FFF784FB02460B4640464946FFF79EF841
:10D04000CDE900012346194A0021384659F0A9FCD0
:10D050000020C6E70A98FFF7DDF9804689460B985D
:10D06000FFF7D8F90CA3D3E90023FFF767FB0246CB
:10D070000B4640464946FFF781F8CDE90201084BCF
:10D0800053F8243000932346094A0021384659F0CA
:10D0900088FC0020A5E700BF0000000080842E412E
:10D0A000E8100110FC960800A4960800C09608003D
:10D0B000E0960800000000002DE9F04184B00C4625
:10D0C000012838D004283CD100220023CDE90023D8
:10D0D0000023029379F035FA214DA0FB058005FB72
:10D0E00001051DA3D3E9002340462946FFF75EFD55
:10D0F0000646C7172060676017A3D3E900234046A0
:10D100002946FFF753FDA260009BF618019B47EBF1
:10D11000030726606760029B1A44A260114B9A4283
:10D1200018D9013647F10007266067600E4B13449B
:10D13000A36000200BE00D4B0FCB04AD05E90F0001
:10D14000C8E761F0E4FC162303604FF0FF3004B041
:10D15000BDE8F0810020FAE700CA9A3B0000000019
:10D1600080969800FFC99A3B003665C42081011063
:10D1700070B584B0012830D10E4679F0E2F91C4A2E
:10D18000A0FB02C002FB0102336870681949A3FBCF
:10D19000013501FB0055B1685C1845EBE175B4EB56
:10D1A0000C0465EB020510A3D3E9002320462946B1
:10D1B000FFF7ACFCCDE900010BA3D3E90023204627
:10D1C0002946FFF7A3FC02920B4C04AB13E90F00B6
:10D1D00084E80F00002004B070BD61F098FC1623B5
:10D1E00003604FF0FF30F6E700CA9A3B00000000F2
:10D1F0008096980000CA9A3B208101100000000030
:10D200002DE9F04F87B0039089461446506850F0DE
:10D21000BDFC002857D0804600221146A06857F078
:10D220002FF8064600221146E06857F029F8074615
:10D2300000221146206957F023F80546B9F1060F80
:10D2400049D04FF00009D8F808305B6804AA31468D
:10D2500040469847002846D1049CDDF814B0A7FB4F
:10D2600004A007FB0B0728A3D3E900235046394647
:10D27000FFF79CFC02904FF0FF335345244BBB411A
:10D2800034D3A5FB047405FB0B451FA3D3E900238E
:10D2900038462946FFF78AFC03464FF0FF32BA4270
:10D2A0001B4A72EB050124D3D8F808201468CDF886
:10D2B0000090029A31464046A0470446E4B9204611
:10D2C00007B0BDE8F08F134A0221039859F069FBBB
:10D2D0006FF01504F3E700221146606956F0D0FFA5
:10D2E0005FFA80F9AFE76FF00404E7E76FF08504B9
:10D2F000E4E76FF08504E1E72346074A022103983B
:10D3000059F04FFBDBE700BF00CA9A3B000000006A
:10D31000FFC99A3B74240C008C240C000000000010
:10D32000F8B52DED028B144605690839032900F282
:10D33000F480DFE801F0022D567FAB68A3F50023EF
:10D3400008EE103AB8EEC88ADFED777A28EE278A21
:10D3500018EE100AFFF770F806460F46FDEEC87A81
:10D3600017EE900AC4ED007AFFF754F802460B4618
:10D3700030463946FEF700FF69A3D3E90023FFF7E3
:10D38000B3F8FFF74BFB60600020BDEC028BF8BDEB
:10D39000EB68A3F5002308EE103AB8EEC88ADFED7B
:10D3A000627A28EE278A18EE100AFFF745F806463B
:10D3B0000F46FDEEC87A17EE900AC4ED007AFFF72B
:10D3C00029F802460B4630463946FEF7D5FE54A3EF
:10D3D000D3E90023FFF788F8FFF720FB6060002007
:10D3E000D3E72B69A3F5002308EE103AB8EEC88AFC
:10D3F000DFED4D7A28EE278A18EE100AFFF71CF8A9
:10D4000006460F46FDEEC87A17EE900AC4ED007A84
:10D41000FFF700F802460B4630463946FEF7ACFEF1
:10D420003FA3D3E90023FFF75FF8FFF7F7FA606047
:10D430000020AAE7AB68A3F5002308EE103AB8EE87
:10D44000C88ADFED398A28EE288A18EE100AFEF71E
:10D45000F3FF06460F46FDEEC87A17EE900AC4EDBC
:10D46000007AFEF7D7FF02460B4630463946FEF7F4
:10D4700083FE2BA3D3E90023FFF736F8FFF7CEFA9C
:10D480006060EB68A3F5002308EE103AB8EEC88A96
:10D4900028EE288A18EE100AFEF7CEFF06460F4641
:10D4A000FDEEC87A17EE900AC4ED027AFEF7B2FFDD
:10D4B00002460B4630463946FEF75EFE18A3D3E916
:10D4C0000023FFF711F8FFF7A9FAE0602B69A3F535
:10D4D000002308EE103AB8EEC88A28EE288A18EE23
:10D4E000100AFEF7A9FF06460F46FDEEC87A17EEB2
:10D4F000900AC4ED047AFEF78DFF02460B463046D3
:10D500003946FEF739FE06A3D3E90023FEF7ECFF08
:10D51000FFF784FA6061002037E76FF0850034E799
:10D520000000000080842E410000803D00000000CB
:10D530002DE970432DED028BB4B004462EAB03678A
:10D5400051F00CFF7A4950F0DFFD03AB07AA0BA99D
:10D5500019A83AF0C9FF03AB07AA0BA919A855F0FF
:10D560000DFA01251CE0A36F0133A36782E016A822
:10D5700055F01AF913A855F057F94FF02002EFF3C0
:10D58000118382F31188BFF36F8F139A6266149A26
:10D59000A266159AE26683F31188BFF36F8F0025A8
:10D5A00004F138004FF0FF324FF0FF3351F0F6F83E
:10D5B000606D83681B6928AA03219847206D8368E2
:10D5C000DB680B2198470028CDD1206D83681B694B
:10D5D0002EAA0B2198472E98FEF71CFF80468946FD
:10D5E0002F98FEF717FF50A3D3E90023FFF7A6F803
:10D5F00042464B46FEF7C2FDFFF738FA07EE100A27
:10D600009FED4C8AC7EE087ACDED257A3098FEF76B
:10D6100001FF804689463198FEF7FCFE42A3D3E91C
:10D620000023FFF78BF842464B46FEF7A7FDFFF7B6
:10D630001DFA07EE100AC7EE087ACDED267A329869
:10D64000FEF7E8FE804689463398FEF7E3FE36A3F0
:10D65000D3E90023FFF772F802460B4640464946DD
:10D66000FEF78CFDFFF702FA07EE100AC7EE087A04
:10D67000CDED277A289AD0172F49A2FB012301FB71
:10D680000033D20A42EA435207EE902AF8EEE77AD4
:10D690009FED2A7AC7EE876ACDED226A2A9AD017C3
:10D6A000A2FB012301FB0033D20A42EA435207EEF8
:10D6B000902AF8EEE77AC7EE876ACDED236A2C9BB5
:10D6C000D817A3FB013201FB0021DB0A43EA4153D7
:10D6D00007EE903AF8EEE77AC7EE876ACDED246A56
:10D6E000002300932B4625AA114622A855F054FB8F
:10D6F0000028BFF63CAF124B1B6813F0070F3FF436
:10D700004FAF0F4B0F4A9B1A9B08012262F3020690
:10D710006FF3C50663F38F1631460B4805F0D0FA58
:10D720003EE700BFAFF300800000000080842E4180
:10D7300020320C0000007A443AA39500002474497A
:10D74000B84A0110284A011030320C0000000000D5
:10D7500030B589B004460C9D0020C4F81001C4F80F
:10D76000140104F58C70C4F81801C4F81C0104F508
:10D770009070C4F82001C4F82401EDB12879E8B90B
:10D780000120C4F828019FED107B8DED067B002061
:10D79000049003930290019000940D4B204678F082
:10D7A000D1F925B1296811B1204650F0ADFC2046D1
:10D7B00078F0B8F909B030BD0120E2E740F201107D
:10D7C000DFE700BFAFF30080FFFFFFFFFFFFFFFFBA
:10D7D00035EA05000000000010B582B004460023C1
:10D7E00004320ED27BB99FED0A7B8DED007B41F0B8
:10D7F0000401204678F0B4F808B140F8044B02B0B8
:10D8000010BD0123EEE70020F9E700BFAFF3008071
:10D81000000000000000000080B588B000AF0F23BA
:10D82000BB613D4B1B681846FEF7F4FD02460B46F4
:10D83000104619464FF00002384BFEF755FE0246DF
:10D840000B4610461946FFF7E9F803467B610023B3
:10D85000FB6113E03249BA6913465B001344FA696D
:10D8600013449B000B441A68FB699B0007F12001DD
:10D870000B44203B1A60FB690133FB61FB69022BFF
:10D88000E8DD3B461846274954F012FC87ED040AB0
:10D89000254BD3ED007A97ED047AC7EE277AC7EDD2
:10D8A000037AF868FEF7C8FD02460B461046194693
:10D8B00015A3D3E90023FFF789F80346002B0ED107
:10D8C000F868FEF7B9FD02460B461046194610A34C
:10D8D000D3E90023FFF798F80346002B05D0134B3C
:10D8E0001B685A1C114B1A6002E0104B00221A6090
:10D8F0000E4B1A687B699A4201DB012300E000238A
:10D9000018462037BD4680BD9A9999999999D93F73
:10D910009A9999999999F93FB44301100000E03F11
:10D9200060C608105CC908108843011000CA0810BE
:10D93000B0B596B000AF87ED010AC7ED000A97EDCC
:10D94000017ADFED807A27EE277ADFED7F7AC7EE66
:10D95000277AC7ED127AB86CFEF76EFD02460B46C9
:10D9600043EC102B00F00CFE53EC102B1046194624
:10D97000FFF77CF803467B64B86CFEF75DFD02465A
:10D980000B4643EC102B00F04FFE53EC102B1046CF
:10D990001946FFF76BF803463B644FF00003FB6446
:10D9A00000237B654DE27B6D07EE903AB8EEE77A97
:10D9B000DFED647A27EE277AF1EE007AC7EE277A58
:10D9C000C7ED147A7B6D013307EE903AB8EEE77A33
:10D9D000DFED5C7A27EE277AF1EE007AC7EE277A40
:10D9E000C7ED0F7A97ED127AD7ED147AB4EEE77A95
:10D9F000F1EE10FA40F3228297ED127AD7ED0F7A0A
:10DA0000B4EEE77AF1EE10FA40F11882386DFEF7C5
:10DA100013FD02460B4643EC102B00F0B1FD53EC16
:10DA2000102B10461946FFF721F80346BB63386DEB
:10DA3000FEF702FD02460B4643EC102B00F0F4FD0E
:10DA400053EC102B10461946FFF710F803467B6382
:10DA5000F86BFEF7F1FC02460B4643EC102B00F08E
:10DA60008FFD53EC102B10461946FEF7FFFF0346BF
:10DA70003B63F86BFEF7E0FC02460B4643EC102BD1
:10DA800000F0D2FD53EC102B10461946FEF7EEFFC6
:10DA90000346FB6297ED0E7AD7ED0E7A67EE277A92
:10DAA000C7ED0A7A97ED0C7AD7ED0C7A67EE277AF4
:10DAB000C7ED097A97ED0D7AD7ED0D7A67EE277AE3
:10DAC000C7ED087A97ED0B7AD7ED0B7A67EE277AD8
:10DAD000C7ED077AD7ED0E7A37EEA77AD7ED0C7A35
:10DAE00067EE277A97ED0A7A37EE677AD7ED097AEB
:10DAF00037EE277AD7ED087A37EE277AD7ED0D7A09
:10DB000077EEA76AD7ED0B7A66EEA77A37EE677ADB
:10DB1000D7ED077A77EE277AC7ED147A97ED147A66
:10DB2000DFED0A7AB4EEE77AF1EE10FA14D5D7ED0C
:10DB3000147AF5EEC07AF1EE10FA0DDB044B3B657A
:10DB40001CE000BFDB0F49400000344395BFD633D3
:10DB500095BFD63395BFD6B397ED147A5FED037AB0
:10DB6000B4EEE77AF1EE10FA08DDD7ED147AF5EEAF
:10DB7000C07AF1EE10FA01D5BB4B3B6597ED117AF7
:10DB8000D7ED0A7A27EE277AD7ED117A77EEA76AD2
:10DB9000D7ED0E7A66EEA76AD7ED0C7A66EEA77A15
:10DBA00037EE677AD7ED0E6AD7ED0D7A66EEA76A83
:10DBB000D7ED0B7A66EEA77A37EE677AD7ED106A63
:10DBC000D7ED0E7A66EEA76AD7ED0D7A66EEA77AE4
:10DBD00037EE277AD7ED0E6AD7ED077A66EEA77A89
:10DBE00037EE277AD7ED106AD7ED0E7A66EEA76A80
:10DBF000D7ED0B7A66EEA77A37EE677AD7ED116A22
:10DC0000D7ED097A66EEA77A37EE277AD7ED0C6A58
:10DC1000D7ED087A66EEA77A37EE277AD7ED0C6A49
:10DC2000D7ED0D7A66EEA76AD7ED0B7A66EEA77A86
:10DC300037EE677AD7ED106AD7ED0C7A66EEA76AF1
:10DC4000D7ED0D7A66EEA77A37EE677AD7ED106AD0
:10DC5000D7ED0C7A66EEA76AD7ED0B7A66EEA77A57
:10DC600037EE277AD7ED147AC7EE277AC7ED067A12
:10DC700097ED0A7AD7ED0B7A27EE277AD7ED0E6A61
:10DC8000D7ED0C7A66EEA76AD7ED0D7A66EEA77A25
:10DC900037EE677AD7ED0E6AD7ED0C7A66EEA76A93
:10DCA000D7ED0B7A66EEA77A37EE677AD7ED116A71
:10DCB000D7ED0E7A66EEA76AD7ED0D7A66EEA77AF3
:10DCC00037EE277AD7ED116AD7ED0E7A66EEA76A9E
:10DCD000D7ED0B7A66EEA77A37EE677AD7ED096A49
:10DCE000D7ED0D7A66EEA77A37EE277AD7ED116A6F
:10DCF000D7ED0C7A66EEA76AD7ED0D7A66EEA77AB5
:10DD000037EE677AD7ED116AD7ED0C7A66EEA76A1F
:10DD1000D7ED0B7A66EEA77A37EE277AD7ED106A41
:10DD2000D7ED087A66EEA77A37EE277AD7ED107A24
:10DD300077EEA76AD7ED0D7A66EEA76AD7ED0B7A74
:10DD400066EEA77A37EE677AD7ED106AD7ED077AD5
:10DD500066EEA77A37EE277AD7ED147AC7EE277AE0
:10DD6000C7ED057A97ED067AD7ED117A37EE677A27
:10DD7000D7ED007A27EE277AD7ED067A77EE277A65
:10DD8000C7ED047A97ED057AD7ED107A37EE677A0A
:10DD9000D7ED007A27EE277AD7ED057A77EE277A46
:10DDA000C7ED037AF868FEF747FB04460D4638696D
:10DDB000FEF742FB02460B4645EC104B43EC112BA1
:10DDC00078F0D4FC53EC102B104619464FF00002AB
:10DDD000264BFEF789FB02460B461046194620A348
:10DDE000D3E90023FEF7AAFC02460B46104619466B
:10DDF000FEF73CFE0346FB64D7ED137AF5EEC07ADE
:10DE0000F1EE10FA07D597ED137ADFED197A77EE78
:10DE1000277AC7ED137A97ED137ADFED157AB4EE12
:10DE2000E77AF1EE10FA00DA0FE097ED137ADFED02
:10DE3000107A77EE677AC7ED137A06E07B6D0133CF
:10DE40007B657B6D072B7FF7AEADFB6C07EE903AE1
:10DE5000B0EE670A5837BD46B0BD00BFAFF30080D3
:10DE600000000060FB21094095BFD6B300806640EA
:10DE70000000B443AFF3008080B5AAB002AFF860F1
:10DE8000B9607A604FF00003C7F888304FF00003A4
:10DE9000C7F88C304FF00003C7F890304FF0000304
:10DEA000FB674FF00003C7F880304FF00003C7F85E
:10DEB00084304FF00003C7F898304FF00003C7F8E4
:10DEC000943007F1580300221A60043300221A60CC
:10DED000043300221A60043300221A600433002243
:10DEE0001A60043300221A60043300221A600433DB
:10DEF00000221A60043300221A60043307F134034D
:10DF000000221A60043300221A60043300221A60CF
:10DF1000043300221A60043300221A600433002202
:10DF20001A60043300221A60043300221A6004339A
:10DF300000221A60043307F1100300221A60043330
:10DF400000221A60043300221A60043300221A608F
:10DF5000043300221A60043300221A6004330022C2
:10DF60001A60043300221A60043300221A6004335A
:10DF700007F188038848194652F08AF907F17C03B3
:10DF80008648194652F084F997ED227A844BD3EDF6
:10DF9000007A37EE677AD7ED226A814BD3ED007AAB
:10DFA00076EEE77A27EE277AD7ED236A7C4BD3ED1E
:10DFB000017A76EEE76A97ED236A794BD3ED017A21
:10DFC00076EE677A66EEA77A37EE277AD7ED246A7F
:10DFD000734BD3ED027A76EEE76A97ED246A704BC5
:10DFE000D3ED027A76EE677A66EEA77A77EE277A35
:10DFF00017EE900AFEF720FA02460B4643EC102B70
:10E0000055F064F853EC102B10461946FEF72EFD20
:10E010000346C7F8983097ED1F7AD7ED1F7A27EEA1
:10E02000277AD7ED206AD7ED207A66EEA77A37EE09
:10E03000277AD7ED216AD7ED217A66EEA77A77EEB7
:10E04000277A17EE900AFEF7F7F902460B4643ECE3
:10E05000102B55F03BF853EC102B10461946FEF7E9
:10E0600005FD0346C7F8943097ED267ADFED4D7A2B
:10E07000B4EEE77AF1EE10FA02D54B4BC7F89830C0
:10E0800097ED257ADFED477AB4EEE77AF1EE10FAF4
:10E0900002D5454BC7F894300023C7F89C3039E0CF
:10E0A000D7F89C309B0007F1A0010B44183B93ED7F
:10E0B000007A3B4AD7F89C309B001344D3ED007A9A
:10E0C00037EE677AD7ED267AC7EE277AD7F89C30F5
:10E0D0009B0007F1A0021344183BC3ED007AD7F868
:10E0E0009C309B0007F1A0010B44243B93ED007A88
:10E0F000D7ED257AC7EE277AD7F89C309B0007F139
:10E10000A0021344243BC3ED007AD7F89C300133BE
:10E11000C7F89C30D7F89C30022BC1DD97ED227AEE
:10E12000D7ED1F7A27EE277AD7ED236AD7ED207A2D
:10E1300066EEA77A37EE277AD7ED246AD7ED217AF3
:10E1400066EEA77A77EE277A184BC3ED007A174B65
:10E1500093ED007AF7EE007AB4EEE77AF1EE10FA7A
:10E1600008DD124B4FF07E521A60114B4FF0000247
:10E170001A6040E00D4B93ED007AFFEE007AB4EEAA
:10E18000E77AF1EE10FA17D5084B0A4A1A60084BE5
:10E190004FF000021A602EE060C60810F8C40810A4
:10E1A0005CC9081095BFD63395BFD633D043011054
:10E1B000D4430110000080BFAF4B93ED007AAE4B0B
:10E1C000D3ED007A67EE277AB7EE007A77EE677ABA
:10E1D00017EE900AFEF730F902460B4643EC102B7F
:10E1E00054F074FF53EC102B10461946FEF73EFC1A
:10E1F0000246A24B1A60A24B1B68032B40F08280A0
:10E20000A04B93ED007AA04BD3ED007AB4EEE77A01
:10E21000F1EE10FA76D59B4B93ED017A9A4BD3ED44
:10E22000007AB4EEE77AF1EE10FA6BD5954B93EDE8
:10E23000027A954BD3ED007AB4EEE77AF1EE10FA5C
:10E2400060D58E4B93ED007A904BD3ED007A67EE5C
:10E25000277A17EE900AFEF7EFF802460B4643ECDA
:10E26000102B78F07AFA53EC102B10461946FEF773
:10E27000FDFB0246864B1A607F4B93ED007A834B81
:10E28000D3ED007A67EE277A17EE900AFEF7D4F8FE
:10E2900002460B4643EC102B78F05FFA53EC102B40
:10E2A00010461946FEF7E2FB02467A4B1A60724BA3
:10E2B000D3ED007AF1EE677A17EE903A1846FEF742
:10E2C000BBF802460B4643EC102B54F0C5FE53EC52
:10E2D000102B104619464FF000026F4BFEF704F961
:10E2E00002460B461046194661A3D3E90023FEF708
:10E2F00025FA02460B4610461946FEF7B7FB0246C2
:10E30000664B1A605D4B93ED007ADFED657AB4EEF3
:10E31000E77AF1EE10FA00F12D814FF00003BB65B2
:10E320004FF00003FB655F4B3B66534BD3ED007A28
:10E33000B1EE677A514BD3ED007AC7EE277AC7ED7D
:10E34000197A4E4BD3ED007AB7EE007AC7EE277AF2
:10E35000C7ED1A7A4FF00003FB664FF07E533B6720
:10E360004FF000037B674FF00003BB67BB6893ED82
:10E37000007ABB68D3ED007A27EE277ABB680433B6
:10E38000D3ED006ABB680433D3ED007A66EEA77A5A
:10E3900037EE277ABB680833D3ED006ABB680833D1
:10E3A000D3ED007A66EEA77A77EE277A17EE900A19
:10E3B000FEF742F802460B4643EC102B54F086FE63
:10E3C00053EC102B10461946FEF750FB0346C7F8D6
:10E3D0009830FB6893ED007AFB68D3ED007A27EE66
:10E3E000277AFB680433D3ED006AFB680433D3ED6E
:10E3F000007A66EEA77A37EE277AFB680833D3ED0A
:10E40000006AFB680833D3ED007A66EEA77A77EEF0
:10E41000277A17EE900AFEF70FF802460B4643ECF8
:10E42000102B54F053FE53EC102B10461946FEF7F8
:10E430001DFB0346C7F8943097ED267ADFED187A76
:10E44000B4EEE77AF1EE10FA02D5174BC7F8983020
:10E4500097ED257ADFED127AB4EEE77AF1EE10FA55
:10E4600002D5114BC7F894300023C7F89C3046E022
:10E4700000000060FB210940D0430110D44301108B
:10E480004CC9081030C9081080430110884301109E
:10E4900074C9081078C90810008066407CC908104B
:10E4A00095BFD633000080BF95BFD633D7F89C30D8
:10E4B0009B00BA681344D7F89C209200B9680A44BC
:10E4C00092ED007AD7ED267AC7EE277AC3ED007A6F
:10E4D000D7F89C309B00FA681344D7F89C20920030
:10E4E000F9680A4492ED007AD7ED257AC7EE277ACB
:10E4F000C3ED007AD7F89C300133C7F89C30D7F8C9
:10E500009C30022BD2DD07F13403F868B9681A4653
:10E5100053F0E8FC07F1580207F13403032100919E
:10E5200079680191104619460322032353F056FEE1
:10E5300007F1100378680321032253F01BFE002328
:10E54000C7F89C3012E0D7F89C309B007A681344DF
:10E55000D7F89C20920007F1A0010A44903A126873
:10E560001A60D7F89C300133C7F89C30D7F89C303C
:10E57000082BE8DDA037BD4680BD00BFAFF30080AB
:10E580001FB553EC102B264823F00041814206DCD6
:10E590009FED211B05B05DF804EB00F0E9BF2148B9
:10E5A000814209DD10EE100A1946FDF7E5FD41EC48
:10E5B000100B05B05DF804FB684600F0CDFD00F0DF
:10E5C000030001280BD0022816D0E0B99DED021BF4
:10E5D0009DED000B00F0CCFF51EC100BE7E79DED3B
:10E5E000021B9DED000B01F0D7FB53EC102B10EE3E
:10E5F000100A03F10041DAE79DED021B9DED000BCF
:10E6000000F0B6FFF1E79DED021B9DED000B012030
:10E6100001F0C2FBE0E700BF0000000000000000C6
:10E62000FB21E93FFFFFEF7F1FB553EC102B28487C
:10E6300023F00041814207DC9FED231B002005B041
:10E640005DF804EB01F0A8BB2248814209DD10EE21
:10E65000100A1946FDF790FD41EC100B05B05DF86E
:10E6600004FB684600F078FD00F0030001280CD0A0
:10E67000022811D0F0B99DED021B9DED000B012089
:10E6800001F08AFB51EC100BE6E79DED021B9DEDBE
:10E69000000B00F06DFFF5E79DED021B9DED000BFB
:10E6A000012001F079FB53EC102B10EE100A03F15E
:10E6B0000041D1E79DED021B9DED000B00F058FFDE
:10E6C000F1E700BFAFF30080000000000000000091
:10E6D000FB21E93FFFFFEF7F2DE9F84F55EC104B91
:10E6E000B74925F000438B421BDD03F1404303F59E
:10E6F0008013234306D1002D00F311829FED960B6A
:10E70000BDE8F88F10EE102A2B4610EE100A2946AD
:10E71000FDF732FD02460B46FEF710F841EC100BF8
:10E72000EEE7A8498B4200F38780A74A934240F363
:10E73000F98110EE102A10EE100A2B462946FDF73B
:10E74000D3FE87A3D3E9002306460F46FDF7CCFE90
:10E7500085A3D3E90023FDF711FD32463B46FDF7C3
:10E76000C3FE83A3D3E90023FDF706FD32463B46F3
:10E77000FDF7BAFE80A3D3E90023FDF7FFFC324684
:10E780003B46FDF7B1FE7EA3D3E90023FDF7F4FC81
:10E7900032463B46FDF7A8FE7BA3D3E90023FDF7F5
:10E7A000EDFC32463B46FDF79FFE79A3D3E90023FB
:10E7B0008046894630463946FDF796FE76A3D3E972
:10E7C0000023FDF7D9FC32463B46FDF78DFE74A3CE
:10E7D000D3E90023FDF7D2FC32463B46FDF784FE29
:10E7E00071A3D3E90023FDF7C7FC32463B46FDF792
:10E7F0007BFE764B0022FDF7C1FC02460B464046ED
:10E800004946FDF79BFF22462B46FDF76DFE02466B
:10E810000B4667A1D1E90001FDF7AEFC02460B46AD
:10E8200020462946FDF7A8FC02460B4662A1D1E925
:10E830000001FDF7A1FC71E7002D80F2CB8010EE06
:10E84000100A624B00222946FDF798FC604B00221B
:10E85000FDF74AFE42A3D3E9002304460D46FDF727
:10E8600043FE41A3D3E90023FDF788FC22462B4653
:10E87000FDF73AFE3EA3D3E90023FDF77DFC2246D7
:10E880002B46FDF731FE3CA3D3E90023FDF776FCD0
:10E8900022462B46FDF728FE39A3D3E90023FDF7D6
:10E8A0006BFC22462B46FDF71FFE37A3D3E900235E
:10E8B000FDF764FC22462B46FDF716FE45EC104B97
:10E8C0008046894654F036FC31A3D3E90023204624
:10E8D000294657EC106BFDF707FE2FA3D3E9002361
:10E8E000FDF74AFC22462B46FDF7FEFD2CA3D3E99B
:10E8F0000023FDF743FC22462B46FDF7F5FD2AA336
:10E90000D3E90023FDF738FC22462B46FDF7ECFD4A
:10E910002E4B0022FDF732FC02460B46404649468C
:10E92000FDF70CFF32463B46FDF7DEFD20A3D3E9A1
:10E930000023FDF721FC32463B46FDF71FFC024653
:10E940000B46FDF71BFC02460B4603A1D1E9000173
:10E950006FE700BFAFF30080182D4454FB2109403E
:10E9600009F7FD0DE13D023F88B20175E0EF493F37
:10E970003B8F68B52882A43F5544880E55C1C93FD6
:10E980007D6FEB0312D6D43F555555555555C53FB0
:10E9900082922EB1C5B8B33F59018D1B6C06E63F7C
:10E9A000C88A599CE52A00404B2D8A1C273A03400F
:10E9B000075C143326A6913C182D4454FB21F93FE3
:10E9C000FFFFEF3FFFFFDF3F0000603C0000F03F34
:10E9D0000000E03F10EE102A2B466D490020FDF7A5
:10E9E000CBFB6C4B0022FDF77FFD04460D4645EC4A
:10E9F000104B54F09FFB4EA3D3E900232046294639
:10EA000059EC108BFDF770FD4BA3D3E90023FDF704
:10EA1000B5FB22462B46FDF767FD49A3D3E900234A
:10EA2000FDF7AAFB22462B46FDF75EFD46A3D3E980
:10EA30000023FDF7A3FB22462B46FDF755FD44A31B
:10EA4000D3E90023FDF798FB22462B46FDF74CFD4A
:10EA500041A3D3E90023FDF791FB22462B46FDF7A6
:10EA600043FD3FA3D3E9002382468B462046294637
:10EA7000FDF73AFD3CA3D3E90023FDF77DFB2246D9
:10EA80002B46FDF731FD3AA3D3E90023FDF776FBD2
:10EA900022462B46FDF728FD37A3D3E90023FDF7D7
:10EAA0006BFB22462B46FDF71FFD394B0022FDF77D
:10EAB00065FB02460B4650465946FDF73FFE42466F
:10EAC0004B46FDF711FD002682468B4632464B46EB
:10EAD00030464946FDF708FD02460B4620462946CA
:10EAE000FDF74AFB324604460D464B464046494632
:10EAF000FDF744FB02460B4620462946FDF71EFE65
:10EB000002460B4650465946FDF738FB32464B4607
:10EB1000FDF734FB02460B46FDF730FBFEE59FEDAB
:10EB2000180BEDE59FED180BEAE500BFAFF3008091
:10EB300009F7FD0DE13D023F88B20175E0EF493F65
:10EB40003B8F68B52882A43F5544880E55C1C93F04
:10EB50007D6FEB0312D6D43F555555555555C53FDE
:10EB600082922EB1C5B8B33F59018D1B6C06E63FAA
:10EB7000C88A599CE52A00404B2D8A1C273A03403D
:10EB80000000000000000000182D4454FB21F93F54
:10EB90000000F03F0000E03F2DE9F04F2DED048B29
:10EBA00055EC104BCC4B83B025F0004898450195AF
:10EBB00035DD10EE103A08F1404808F5801858EAA3
:10EBC000030317D1AAA3D3E9002310EE100A2946A4
:10EBD000FDF78AFCA8A3D3E9002306460F4620468A
:10EBE0002946FDF781FC02460B4630463946FDF7C3
:10EBF000C5FA0BE010EE102A2B4610EE100A29463B
:10EC0000FDF7BAFA02460B46FDF798FD04460D469D
:10EC100045EC104B03B0BDEC048BBDE8F08FAF4B5F
:10EC2000984511DCB8F1795F80F2AE8094A3D3E906
:10EC3000002310EE100A2946FDF7A0FAA84B002287
:10EC4000FDF7E2FE0028E3D145EC104B77F085FD9F
:10EC5000A34953EC102B0020FDF78EFAA14B0022A4
:10EC6000FDF742FC88A3D3E9002304460D46FDF7D7
:10EC70003BFC87A3D3E90023FDF780FA22462B460D
:10EC8000FDF732FC84A3D3E90023FDF775FA224691
:10EC90002B46FDF729FC82A3D3E90023FDF76EFA8A
:10ECA00022462B46FDF720FC7FA3D3E90023FDF786
:10ECB00063FA22462B46FDF717FC7DA3D3E9002318
:10ECC000FDF75CFA22462B46FDF70EFC7AA3D3E94A
:10ECD000002341EC180B20462946FDF705FC78A3DC
:10ECE000D3E90023FDF748FA22462B46FDF7FCFB4B
:10ECF00075A3D3E90023FDF741FA22462B46FDF721
:10ED0000F3FB73A3D3E90023FDF736FA22462B4623
:10ED1000FDF7EAFB724B0022FDF730FA45EC104B91
:10ED200006460F4654F006FA6F4B98455BEC10AB65
:10ED300040F3DC8032463B4651EC180BFDF7FEFCFD
:10ED400052465B46FDF7D0FB52465B46FDF716FA8E
:10ED500002460B46FDF712FA47A3D3E90023FDF75D
:10ED60000BFA02460B4642A1D1E90001FDF704FA75
:10ED7000019B002BDCBF024601F1004304460D4617
:10ED8000DCBF14461D4643E710EE102A10EE100AB1
:10ED90002B462946FDF7A8FB3BA3D3E900230646F3
:10EDA0000F46FDF7A1FB3AA3D3E90023FDF7E6F9EF
:10EDB00032463B46FDF798FB37A3D3E90023FDF726
:10EDC000DBF932463B46FDF78FFB35A3D3E9002341
:10EDD000FDF7D4F932463B46FDF786FB32A3D3E973
:10EDE0000023FDF7C9F932463B46FDF77DFB30A312
:10EDF000D3E90023FDF7C2F932463B46FDF774FB29
:10EE00002DA3D3E900238046894630463946FDF7D5
:10EE10006BFB2BA3D3E90023FDF7AEF932463B464B
:10EE2000FDF762FB28A3D3E90023FDF7A7F93246DB
:10EE30003B46FDF759FB26A3D3E90023FDF79CF9D8
:10EE400032463B46FDF750FB254B0022FDF796F975
:10EE500002460B4640464946FDF770FC22462B46CB
:10EE6000FDF742FB02460B4620462946BFE600BF9F
:10EE7000182D4454FB21F93F075C143326A6913C1E
:10EE80009C7500883CE4377E09F7FD0DE13D023FAB
:10EE900088B20175E0EF493F3B8F68B52882A43FF7
:10EEA0005544880E55C1C93F7D6FEB0312D6D43F40
:10EEB000555555555555C53F82922EB1C5B8B33FEE
:10EEC00059018D1B6C06E63FC88A599CE52A004013
:10EED0004B2D8A1C273A0340FFFFEF3FFFFFDF3F28
:10EEE0000000F03F0000E03F3233EF3F10EE102A09
:10EEF00010EE100A5B465946FDF740F932463B4694
:10EF000041EC190B51EC180BFDF718FC02460B46AF
:10EF100051EC190BFDF7E8FA4FF0000806460F46D2
:10EF200042465B4640465946FDF7DEFA02460B462E
:10EF300020462946FDF720F9424604460D465B4629
:10EF400050465946FDF71AF902460B462046294617
:10EF5000FDF7F4FB02460B46FDF710F902460B469F
:10EF600013A1D1E90001FDF707F902460B4630462F
:10EF70003946FDF701F9424604460D465B464046D8
:10EF80005946FDF7FBF802460B460BA1D1E90001FB
:10EF9000FDF7F2F802460B4620462946FDF7ECF84D
:10EFA00002460B4604A1D1E90001DFE6AFF3008081
:10EFB000075C143326A6913C182D4454FB21E93FED
:10EFC0002DE9F84357EC116B7342DFF884E127F029
:10EFD0000042334342EAD373734551EC100B11EEF8
:10EFE000108A0AD8444221F00043044343EAD4740F
:10EFF000744510EE109A8C4607D932463B46FDF711
:10F00000BDF841EC100BBDE8F88307F1404404F56E
:10F010008014344303D1BDE8F84300F07DBFBC1732
:10F0200004F0020453EA090944EAD17407D1022C1E
:10F0300060D0032CE5D142A1D1E90001E1E752EA19
:10F04000080806D1BCF1000F5FDA3FA1D1E9000149
:10F05000D7E772450FD1934204F1FF3407D1022C58
:10F060004CD8354B03EBC404D4E90001C9E7022CAA
:10F0700048D8324BF6E77345E4D09B1AB3F1747F5E
:10F080004FEA23521EDA002F01DA3C321EDB3246F1
:10F090003B46FDF753FB41EC100B77F05EFB00F0B5
:10F0A0003BFF51EC100B012C13D0022C15D0002C7F
:10F0B000A7D019A3D3E90023FDF75EF818A3D3E97D
:10F0C000002314E018A1D1E90001ECE700200021A1
:10F0D000E9E701F10043194693E70FA3D3E90023C1
:10F0E000FDF74AF802460B460DA1D1E90001FDF7F4
:10F0F00043F886E70AA1D1E9000182E70CA1D1E932
:10F1000000017EE7002000217BE707A1D1E9000193
:10F1100077E700BFAFF30080075C143326A6A13C5D
:10F12000182D4454FB210940182D4454FB21F93F6C
:10F13000182D4454FB21E93FF0790800087A0800B3
:10F14000182D4454FB2109C0182D4454FB21F9BF4C
:10F150000000F07F000000002DE9F04F2DED028B44
:10F1600055EC104BCA4B8BB025F0004898458246B1
:10F17000029508DC0022002380ED000BC0E9022389
:10F180004FF0000B28E0C34B984578DC029BC24E41
:10F19000002B10EE100AB0A3D3E90023294639DD75
:10F1A000FCF7EAFFB04504460D461BD0ACA3D3E9FB
:10F1B0000023FCF7E1FF02460B46CAE90023204684
:10F1C0002946FCF7D9FFA6A3D3E90023FCF7D4FF17
:10F1D000CAE902014FF0010B58460BB0BDEC028B9F
:10F1E000BDE8F08FA0A3D3E90023FCF7C5FFA0A3DF
:10F1F000D3E9002304460D46FCF7BEFF02460B464A
:10F20000CAE9002320462946FCF7B6FF98A3D3E9B4
:10F210000023DBE7FCF7B2FFB04504460D4616D0ED
:10F220008FA3D3E90023FCF7A9FF02460B46CAE9E6
:10F23000002320462946FCF79FFF89A3D3E900233A
:10F24000FCF79CFF4FF0FF3BCAE90201C4E786A32D
:10F25000D3E90023FCF792FF85A3D3E900230446FA
:10F260000D46FCF78BFF02460B46CAE900232046F9
:10F270002946FCF781FF7EA3D3E90023E0E7874B13
:10F28000984500F3D98077F068FA55EC104B10EEF2
:10F29000100A79A3D3E900232946FDF725F9804B0D
:10F2A0000022FCF76BFFFDF7B9FB8346FDF7B2F8D0
:10F2B00002460B4643EC182B67A3D3E90023FDF766
:10F2C00013F902460B4620462946FCF755FF64A376
:10F2D000D3E9002306460F4651EC180BFDF704F95D
:10F2E000BBF11F0F04460D460DDC6E4B0BF1FF32D8
:10F2F00053F82230434506D022462B463046394645
:10F30000FCF73AFF0FE02B46224630463946FCF721
:10F3100033FF4FEA28530393C1F30A53C3EB185842
:10F32000B8F1100F02DCCAE9000139E04EA3D3E9BD
:10F33000002351EC180BFDF7D7F804460D460246A2
:10F340000B4630463946FCF717FF02460B4680460F
:10F35000894630463946FCF70FFF22462B46FCF71C
:10F360000BFF43A3D3E9002304460D4651EC180BD1
:10F37000FDF7BAF822462B46FCF7FEFE02460B4686
:10F3800004460D4640464946FCF7F6FE039AC1F393
:10F390000A53D31A312B24DCCAE9000146464F46F2
:10F3A000DAE90089304642464B463946FCF7E4FE2E
:10F3B0002B462246FCF7E0FE029B002BCAE9020125
:10F3C000BFF60AAF09F10043CAF8043001F1004367
:10F3D000CAF80080CAF80800CAF80C30CBF1000B5C
:10F3E000FAE627A3D3E9002351EC180BFDF77CF8CC
:10F3F00004460D4602460B4640464946FCF7BCFE15
:10F4000002460B4606460F4640464946FCF7B4FE08
:10F4100022462B46FCF7B0FE1BA3D3E9002304468B
:10F420000D4651EC180BFDF75FF822462B46FCF712
:10F43000A3FE04460D465FE71B4B984536DD10EEF4
:10F44000102A2B4620462946FCF796FECAE90201FF
:10F45000CAE9000194E600BF00004054FB21F93FD7
:10F460003163621A61B4D03D0000601A61B4D03DCE
:10F470007370032E8A19A33B83C8C96D305FE43FC4
:10F480000000002E8A19A33BC14920259A837B39AD
:10F49000FB21E93F7BD90240FB21F93FFB213941A8
:10F4A0000000E03F60930C00FFFFEF7F4FEA28541D
:10F4B000A4F2164410EE100AA8EB045110EE106AE4
:10F4C0000F46FDF7ABFAFCF7A5FF02460B463046A8
:10F4D0003946CDE90423FCF74FFE234B0022FDF70C
:10F4E00003F80F460646FDF799FAFCF793FF02462C
:10F4F0000B4630463946CDE90623FCF73DFE1A4B54
:10F500000022FCF7F1FFCDE9080104AD4FF003083C
:10F51000A9460026002732463B46D5E90401C346EA
:10F52000083D08F1FF38FDF747FA0028F3D10F4BEB
:10F5300001930223009322465B465146484600F061
:10F54000DFF8029B002B8346BFF646AEDAE90021C6
:10F5500001F10043CAE90023DAE9022101F1004385
:10F56000CAE902233AE700BF00007041E0930C00B3
:10F570002DE9F74F57EC106B27F00048B8F1795F91
:10F580008DED001B07DA10EE100A3946FDF746FA3A
:10F59000002800F0888032463B4630463946FCF76A
:10F5A000A3FF514B002204460D46FCF79DFF40A3EC
:10F5B000D3E9002382468B4620462946FCF794FF78
:10F5C0003DA3D3E90023FCF7D9FD22462B46FCF7E7
:10F5D0008BFF3BA3D3E90023FCF7CEFD22462B464D
:10F5E000FCF782FF38A3D3E90023FCF7C7FD2246CE
:10F5F0002B46FCF779FF36A3D3E90023FCF7BCFDCB
:10F6000022462B46FCF770FF33A3D3E90023FCF717
:10F61000B5FD22462B46FCF767FF22462B46FCF73A
:10F6200063FFDDE9002304460D4630463946FCF70A
:10F630005BFF0B46024629462046FCF79DFD2B4BFF
:10F64000984506460F4610DC02460B465046594682
:10F65000FCF792FD0B46264902460020FCF78CFD84
:10F6600041EC100B03B0BDE8F08F224B20499845C8
:10F67000CCBF214DA8F50015002422462B460020C2
:10F68000FCF77AFD2246804689462B46504659466D
:10F69000FCF772FD32463B46FCF76EFD02460B4618
:10F6A00040464946DAE79FED0E0BDBE7AFF30080FB
:10F6B000D43888BEE9FAA8BDC4B1B4BD9EEE213EDF
:10F6C000AD529C804F7E923E9015CB19A001FA3E20
:10F6D0007751C1166CC1563F4C5555555555A53FF0
:10F6E000000000000000F03F0000E03F3233D33F55
:10F6F0000000F03F0000E93F0000D23F00000000A2
:10F700002DE9F04F2DED028BADF51B7D12F1140F9D
:10F7100008930191C44BA6990B9053F821300293A2
:10F72000089B03F1FF33A8BFD41E0693B2BF002489
:10F73000182394FBF3F46FF0170304FB033303EB7C
:10F74000020A029B069A9FEDB48B03EB0208A79B6B
:10F75000A71A22AE03EB87090025454513DD089B58
:10F760009FEDAD8B22AA02EBC3050DF5E47B4FF0B4
:10F770000008029B98452FDC8DED048BDDF82C9062
:10F780002F4600261BE0EF4207D459F82500FCF76E
:10F7900041FEE6E802010135DFE751EC180BF8E71E
:10F7A000D7E90023F9E80201FCF79EFE02460B466A
:10F7B000DDE90401FCF7E2FCCDE904010136069B1A
:10F7C0009E42A7F10807EBDD9DED047B08F10108DF
:10F7D000ABEC027B0835CCE7029B0EAA02EB83035D
:10F7E0000D93A79B03EB8403029C0C93E3000A9305
:10F7F0009AAB03EBC40353E928670DF1380872ABE9
:10F8000003EBC405C346A146B9F1000FA5F10805F5
:10F8100077DC47EC106B504600F0A6FD57EC106B00
:10F8200000224FF07F5310EE100A3946FCF75CFEC1
:10F8300041EC100B00F010FD7C4B51EC100B002242
:10F84000FCF752FE02460B4630463946FCF794FC64
:10F850000F460646FDF7E2F80490FCF7DBFD024692
:10F860000B4630463946FCF787FCBAF1000F0646D6
:10F870000F466DDD621E0EAB049D53F82200CAF1E7
:10F88000180140FA01F31D448B40C01A0EAB0495D9
:10F8900043F82200CAF1170340FA03FBBBF1000F43
:10F8A00065DD049B00220133049315466FF07F4110
:10F8B000944200F39C80BAF1000F07DDBAF1010F0A
:10F8C00000F0C080BAF1020F00F0C680BBF1020F59
:10F8D0004DD132463B4656490020FCF74DFC0646CA
:10F8E0000F46002D43D050469FED4D0B00F03CFDE0
:10F8F0003046394653EC102BFCF73EFC06460F46CB
:10F9000035E04C4B002230463946FCF7EDFDFDF763
:10F9100085F8FCF77FFD02460B4643EC182B464B5F
:10F920000022FCF7E1FD02460B4630463946FCF763
:10F9300023FCFDF773F8D5E900234BF8040B51ECD9
:10F94000180BFCF71BFC09F1FF3906460F465BE775
:10F9500006D1631E0EAA52F823004FEAE05B9DE732
:10F96000364B0022FDF746F800283DD183460022A1
:10F97000002330463946FDF71FF8002800F0BF800D
:10F98000651E2B46002202998B426CDA002A00F099
:10F9900088800EABAAF1180A53F82530002B00F02E
:10F9A000AC8050469FED1E0B00F0DEFC9AAB03EBE3
:10F9B000C50357EC106BEC00A3F19808AA46BAF106
:10F9C000000F80F2D5809FED148B2E46002EC0F2E2
:10F9D000038172AB8DED068BDFF864A003EBC609E3
:10F9E0004FF00008AF1BE9E04FF0020B59E7D8F8E1
:10F9F000003055B923B1C3F18073C8F8003001233A
:10FA0000013208F104081D4652E7CB1AC8F800304D
:10FA10002B46F5E7AFF30080000000000000000077
:10FA2000000000000000F03FE8940C0000002040BF
:10FA30000000F03F0000703E000070410000E03F19
:10FA4000207A0800621E0EAB53F82230C3F316036F
:10FA50000EA941F8223039E7621E0EAB53F822306E
:10FA6000C3F31503F4E70EA951F82310013B0A4331
:10FA700089E7013352F8041D0029FAD00A9A9AA99D
:10FA80000A44983A0A92089AE318A51822AA04F19F
:10FA9000010802EBC5050493049B434504DA1C46A8
:10FAA000A4E60D9A0123E5E70C9B53F82800FCF728
:10FAB000B1FCE5E802010B9BAB461C464FF0000988
:10FAC00000260027069B994506DD0A9BE3E80267AE
:10FAD00008F101080A93DFE77BE90223F4E8020159
:10FAE000FCF702FD02460B4630463946FCF746FB62
:10FAF00009F1010906460F46E4E7013D49E747ECF5
:10FB0000106BCAF1000000F02FFC57EC106BA04BFB
:10FB100010EE100A00223946FCF76CFFF8B19D4B3D
:10FB2000002230463946FCF7DFFCFCF777FF8046C1
:10FB3000FCF770FC964B0022FCF7D6FC0B46024605
:10FB400039463046FCF718FBFCF768FF651C0EAB26
:10FB50000AF1180A43F8240043F8258021E73046CB
:10FB60003946FCF75BFF0EAB254643F8240018E747
:10FB70000EAB53F82A00FCF74DFC32463B46FCF72F
:10FB8000B3FC844B68E90201002230463946FCF799
:10FB9000ABFC0AF1FF3A06460F4610E7F9E80223EC
:10FBA000FAE80201FCF7A0FC02460B46DDE906017B
:10FBB000FCF7E4FACDE9060108F10108029B98453B
:10FBC00001DCB845EADD9DED067B4AAB03EBC707D8
:10FBD00087ED007B013EF9E6A69B022B0BDC002B98
:10FBE00035DC59D0049B03F007000DF51B7DBDECFF
:10FBF000028BBDE8F08FA69B032BF3D14AAB2344C5
:10FC000006931C469A460295029B002BAAF1080A0D
:10FC100069DCAA46BAF1010FA4F1080400F383805D
:10FC2000069C002008340021012D00F39B80DDE9B3
:10FC30004A56DDE94C78BBF1000F40F09980019BFA
:10FC4000C3E90056C3E90278C3E90401CAE70834EE
:10FC50004AAB1C442E4600200021002E34DABBF1B2
:10FC6000000F37D0024601F10043019CC4E9002394
:10FC700002460B46DDE94A01FCF77EFA4CAE012450
:10FC8000A5422ADABBF1000F02D001F10043194668
:10FC9000019BC3E90201A5E79AAB1C44A4F59C743F
:10FCA00000200021002D09DABBF1000F02D001F184
:10FCB00000431946019BC3E9000193E774E902235D
:10FCC000FCF75CFA013DEDE774E90223FCF756FA14
:10FCD000013EC2E702460B46C7E7F6E80223FCF7FF
:10FCE0004DFA0134CCE7DAE90089DAE90267029BD0
:10FCF000013B029332463B4640464946FCF73EFAFA
:10FD0000CDE9080102460B4640464946FCF734FA65
:10FD100032463B46FCF732FA9DED087BCAE9020108
:10FD20008AED007B70E7D4E90089D4E90267404698
:10FD300032463B464946FCF721FACDE9020102462C
:10FD40000B4640464946FCF717FA32463B46FCF75D
:10FD500015FA9DED027BC4E9020184ED007B0AF1F6
:10FD6000FF3A57E774E90223FCF708FA013D5BE725
:10FD7000019B019A1D6006F100445C609F6008F1E0
:10FD80000043D36001F10043106153612AE700BFD3
:10FD9000000070410000703E2DE9F04F2DED048B06
:10FDA000B0EE418AF0EE618A55EC104B83B025F03D
:10FDB0000043B3F1795F019006DA10EE100A29468C
:10FDC000FCF72CFE002851D022462B46204629461F
:10FDD000FCF78AFB82468B4602460B4620462946A4
:10FDE000FCF782FB41A3D3E90023804689465046B5
:10FDF0005946FCF779FB3FA3D3E90023FCF7BCF994
:10FE000052465B46FCF770FB3CA3D3E90023FCF7AA
:10FE1000B5F952465B46FCF767FB3AA3D3E90023EA
:10FE2000FCF7AAF952465B46FCF75EFB37A3D3E921
:10FE30000023FCF7A3F9019B06460F46EBB90246E7
:10FE40000B4650465946FCF74FFB25A3D3E9002348
:10FE5000FCF792F942464B46FCF746FB02460B463E
:10FE600020462946FCF78AF904460D4645EC104B1E
:10FE700003B0BDEC048BBDE8F08F1B4B51EC180BAD
:10FE80000022FCF731FB324641EC190B3B46404661
:10FE90004946FCF729FB02460B4651EC190BFCF7CF
:10FEA0006BF952465B46FCF71FFB53EC182BFCF733
:10FEB00063F90BA3D3E9002306460F4640464946A3
:10FEC000FCF712FB02460B4630463946FCF756F962
:10FED00002460B4620462946FCF74EF9C4E700BF10
:10FEE000495555555555C53F0000E03F7CD5CF5A83
:10FEF0003AD9E53DEB9C2B8AE6E55A3E7DFEB157AB
:10FF0000E31DC73ED561C119A0012A3FA6F8101113
:10FF10001111813F000000002DE9F84F55EC104B06
:10FF2000C34B25F000469E42AB4618DDC14B9E42B6
:10FF300001DC09D144B122462B4620462946FCF774
:10FF40001DF904460D4606E0BBF1000F00F33181B8
:10FF50009BA5D5E9004545EC104BBDE8F88FB64BA5
:10FF60009E4214DCA3F1DE739E420DDC96A3D3E91E
:10FF7000002310EE100A2946FCF700F9AF4B0022CF
:10FF8000FCF742FD0028E6D14FF0FF3A2BE076F077
:10FF9000E4FBAB4B9E4255EC104B00F3BF80A3F546
:10FFA00050239E4200F3A08010EE102A10EE100A9B
:10FFB0002B462946FCF7E2F8A04B0022FCF7DCF8C0
:10FFC000002206460F464FF0804320462946FCF7A4
:10FFD000D5F802460B4630463946FCF7AFFB4FF0EA
:10FFE000000A04460D4622462B4620462946FCF7C9
:10FFF0007BFA02460B4680468946FCF775FA74A3E5
:020000021000EC
:10000000D3E9002306460F46FCF76EFA72A3D3E944
:100010000023FCF7B3F832463B46FCF765FA70A3C1
:10002000D3E90023FCF7AAF832463B46FCF75CFA1A
:100030006DA3D3E90023FCF7A1F832463B46FCF759
:1000400053FA6BA3D3E90023FCF798F832463B46FA
:10005000FCF74AFA68A3D3E90023FCF78FF842467D
:100060004B46FCF741FA66A3D3E900238046894654
:1000700030463946FCF738FA63A3D3E90023FCF78E
:100080007BF832463B46FCF72FFA61A3D3E9002305
:10009000FCF772F832463B46FCF726FA5EA3D3E93A
:1000A0000023FCF769F832463B46FCF71DFA5CA3D7
:1000B000D3E90023FCF760F832463B46FCF714FA1C
:1000C00002460B4640464946FCF758F822462B4666
:1000D000FCF70AFABAF1FF3F02460B464BD1204625
:1000E0002946FCF749F82CE710EE100A534B002282
:1000F0002946FCF741F8514B06460F4600222046A0
:100100002946FCF73BF802460B4630463946FCF7D9
:1001100015FB4FF0010A04460D4664E7494B9E4229
:100120001DDA10EE100A484B00222946FCF724F88D
:10013000454B06460F46002220462946FCF7D4F9D7
:100140003E4B0022FCF71AF802460B463046394671
:10015000FCF7F4FA4FF0020A04460D4643E72B463B
:1001600010EE102A39490020FCF7E8FA4FF0030A94
:1001700004460D4637E7364B364E06EBCA0603EB10
:10018000CA0ADAE90023FBF7F7FF22462B46FBF702
:10019000F3FF02460B46D6E90001FBF7EDFFBBF18A
:1001A000000F04460D46BFF6D6AE01F100431D46D2
:1001B000D1E61DA5D5E90045CDE600BFAFF300802F
:1001C000182D4454FB21F9BF9C7500883CE4377E10
:1001D00011DA22E33AAD903FEB0D76244B7BA93F39
:1001E000513DD0A0660DB13F6E204CC5CD45B73F07
:1001F000FF8300922449C23F0D5555555555D53FB3
:100200002F6C6A2C44B4A2BF9AFDDE522DDEAD3FA6
:100210006D9A74AFF2B0B33F711623FEC671BC3F46
:10022000C4EB98999999C93F182D4454FB21F93F83
:10023000FFFF0F440000F07FFFFFDB3F0000F03FB7
:10024000FFFFF23F008003400000F83F0000F0BFD6
:10025000807A0800607A080051EC100B2DE9F0411B
:10026000C1F30A57A7F2FF36132E10EE105A10EE04
:10027000108A0C4632DC002E14DA33A3D3E90023B3
:10028000FBF77CFF00220023FCF7BEFB38B1002CFB
:1002900057DA24F000431D4301D02D4C00252146A0
:1002A000284625E02B4F374101EA070303431FD0BF
:1002B00025A3D3E90023FBF761FF00220023FCF70D
:1002C000A3FB0028EBD0002CBEBF4FF4801343FAF1
:1002D00006F6A41924EA07040025E0E7332E0BDD17
:1002E000B6F5806F04D110EE102A0B46FBF746FFDF
:1002F00041EC100BBDE8F081A7F213474FF0FF333C
:1003000023FA07F70742F3D00FA3D3E90023FBF743
:1003100035FF00220023FCF777FB0028BFD0002C1C
:1003200002DA142E03D1013425EA0705B7E70123C9
:10033000C6F1340603FA06F63544454538BFE418DD
:10034000F2E700252C46AAE79C7500883CE4377E3E
:100350000000F0BFFFFF0F009FED010B704700BFD3
:10036000000000000000F87F70B555EC104BC5F39D
:100370000A5206462B469AB925F00043234336D04D
:10038000394B294610EE100A0022FCF7ADF8374B26
:100390009E4204460D4610DA2BA3D3E900233AE02F
:1003A00040F2FF718A420CD110EE102A20462946F5
:1003B000FBF7E4FE04460D4619E0C1F30A520B4672
:1003C000363A324440F2FE718A4208DD002D20A107
:1003D000D1E900011CDA20A1D1E9000118E0002ACE
:1003E00008DD23F0FF4323F4E00343EA025545EC24
:1003F000104B70BD12F1350F19DA4CF250339E429A
:1004000005F000430ADD12A1D1E90001002BE2D181
:100410000FA3D3E90023FCF767F8CBE70AA1D1E9E2
:100420000001002BB8D00EA1D1E90001B4E723F000
:10043000FF43363223F4E00343EA025120460C4BDB
:100440000022E8E7AFF3008059F3F8C21F6EA50160
:100450009C7500883CE4377E9C7500883CE437FE40
:1004600059F3F8C21F6EA58100005043B03CFFFF56
:100470000000903C000000002DE9F04F2DED048BB2
:1004800057EC106B93B0456ADDF88080069110EE52
:1004900010AA044609920C93BB4675B9102052F07D
:1004A000F5FF0246606220B9A74BEA21A74852F047
:1004B000F3FEC0E901550560C560636A196851B172
:1004C0005A684A60012393408B60204654F0EAF951
:1004D000636A00221A603B1EAABF002323F0004B70
:1004E000C8F800309A4BBCBF0122C8F8002033EA9C
:1004F0000B031BD10C9A42F20F731360CBF313035F
:10050000334300F09285219B63B9924B22E0924BDA
:1005100001930833219A1360019813B0BDEC048B4A
:10052000BDE8F08F8B4B01930333F3E700220023E8
:1005300050465946FCF740FA4BEC19AB804658B18F
:100540000C9A01231360219B002B00F06B858348DC
:100550001860431E0193DFE74BEC10AB10AA11A902
:10056000204654F01BFCCBF30A5508EE100A002D70
:1005700000F0848019EE903AC3F3130343F07F57E1
:10058000564647F44017A5F2FF35CDF83880744B36
:10059000002230463946FBF7EFFD65A3D3E900237F
:1005A000FBF7A2FF64A3D3E90023FBF7E7FD0646B0
:1005B00028460F46FBF72EFF61A3D3E90023FBF784
:1005C00093FF02460B4630463946FBF7D7FD0646F9
:1005D0000F46FCF723FA00220090002330463946EC
:1005E000FCF7F4F950B10098FBF714FF32463B4694
:1005F000FCF7E2F910B9009B013B0093009B162B1E
:100600005AD8009A574B03EBC203D3E9002351ECAD
:10061000190BFCF7DBF9002850D0009B013B00933D
:1006200000230B93109B5D1B6B1E059345BFC5F10B
:1006300001030493002300234CBF05930493009B04
:10064000002B3DDB059B009A0A921344059300237F
:100650000793069B092B00F28980052BC4BF043B3E
:100660000693069BA3F10203CCBF00250125032BB3
:1006700000F28780DFE803F02D3A3859DDE91053A6
:100680001D4405F23243202BC1BFC3F1400305F2E4
:1006900012400BFA03F326FA00F0DABFC3F120038D
:1006A00006FA03F01843FBF7A5FE01230646A1F165
:1006B000F877013D0E936AE70123B2E70B90B1E7AB
:1006C000049B009A9B1A04935342079300230A93B6
:1006D000BFE700230893099B002B55DC0123CDE9DC
:1006E00002331A4609920CE00123F3E70023099A2A
:1006F0000893009B134402930133012B0393B8BF6B
:100700000123606A00224260042202F114069E4224
:1007100041683DD9204654F085F8019000283BD12E
:10072000114B02464FF4D571C0E60123DFE700BF4D
:1007300061436F63A787D23FB3C8608B288AC63FE7
:10074000FB799F501344D33FA5960C00E7970C000C
:100750000000F07FE3970C00DA970C0038970C004C
:100760000000F83FC87A080041980C0001250023DA
:10077000069308954FF0FF33CDE902330022122390
:10078000B0E701230893F5E7099BCDE90233B8E709
:10079000013141605200B8E7636A019A1A60039B15
:1007A0000E2B00F29D80002D00F09A80009B002B04
:1007B00032DDB74A03F00F0302EBC303D3E900892C
:1007C000009BD8054FEA231716D5B24B51EC190BF5
:1007D000D3E90823FBF7B2FF07F00F0782468B46E9
:1007E0000325AC4E57B942464B4650465946FBF797
:1007F000A5FF82468B4628E00225F2E7F90708D5D7
:1008000040464946D6E90023FBF76EFE0135804697
:1008100089467F100836E5E700F09B80009B9D4FDE
:100820005E429B4B06F00F0203EBC203D3E90023A9
:1008300051EC190BFBF758FE361182468B4600230C
:100840000225002E7AD1002BD3D10B9B002B00F078
:100850008280914B002250465946FCF7B7F8002899
:1008600079D0039B002B76D0029B002B36DD009BBA
:10087000504659465F1E0022884BFBF735FE029E0C
:1008800082468B4601352846FBF7C4FD52465B463F
:10089000FBF72AFE824B0022FBF770FCD046D946BC
:1008A0008246A1F1507B002E58D17E4B002240465B
:1008B0004946FBF761FC52465B4680468946FCF799
:1008C000A3F8002840F0958252460BF100434046C1
:1008D0004946FCF77BF8002840F089825BEC19ABB5
:1008E000119B002BC0F24881009A0E2A00F344812C
:1008F000674B03EBC203D3E90089099B002B80F20D
:10090000D580039B002B00F3D18040F06F82654BB4
:10091000002240464946FBF7E7FD52465B46FCF79E
:1009200069F8039E3746002840F04582019D312337
:1009300005F8013B009B0133009340E2F20705D527
:10094000D7E90023FBF7D0FD0135012376100837E6
:1009500077E7022579E7009F039E94E701994C4BC6
:1009600031440D91089903EBC60353E90223002992
:1009700043D04D490020FBF7E1FE52465B46FBF7B2
:10098000FBFB019D82468B4649464046FCF746F8F4
:100990000646FBF73FFD02460B4640464946FBF73D
:1009A000EBFB303605F8016B52465B4680468946C4
:1009B000FCF70CF8002863D142464B46364900202C
:1009C000FBF7DAFB52465B46FCF700F8002840F0E4
:1009D000B5800D9B9D4281D0304B00225046594638
:1009E000FBF782FD2D4B82468B464046494600224E
:1009F000FBF77AFD80468946C6E750465946FBF725
:100A000073FD0D9B019D0F9382468B4649464046E0
:100A1000FCF704F80646FBF7FDFC303602460B46B1
:100A200040464946FBF7A8FB05F8016B0D9B9D422C
:100A3000804689464FF0000224D11B4B5046594650
:100A4000FBF79CFB02460B4640464946FBF7DCFFA2
:100A5000002873D152465B4613490020FBF78CFBFC
:100A600002460B4640464946FBF7B0FF00283FF4DC
:100A700035AF0F9D6B1E0F9315F8013C302BF8D04E
:100A8000009749E0054BFBF72FFD80468946BDE7FF
:100A9000C87A0800A07A08000000F03F0000244057
:100AA00000001C40000014400000E03F019D56463D
:100AB0005F4642464B4630463946FBF73FFEFBF762
:100AC000ADFF8246FBF7A6FC42464B46FBF70CFD0A
:100AD00002460B46304639460AF13006FBF74CFB1E
:100AE00005F8016B019E039FAE1BB74202460B4601
:100AF00035D1FBF743FB42464B4606460F46FBF714
:100B000083FFD0B942464B4630463946FBF754FF87
:100B100010B11AF0010F10D1204618EE101A53F040
:100B2000C1FE002300982B700C9B01301860219BA4
:100B3000002B3FF4F1AC1D60EEE4009F2B461D46F8
:100B400013F8012D392A06D1019A9A42F7D1019959
:100B5000302201370A701A7801321A7090E7A64BDA
:100B60000022FBF7C1FC0022002306460F46FBF7DC
:100B700023FF00289DD0CFE7089A002A00F0D780F5
:100B8000069A012A00F3BA800E9A002A00F0B28079
:100B900003F23343079E049D049A1A440492059A73
:100BA00001211A442046059253F0E4FE0746002D29
:100BB0000CDD059B002B09DDAB42049AA8BF2B4638
:100BC000D21A0492059AED1AD31A0593079B1BB308
:100BD000089B002B00F0AF80002E13DD3946324613
:100BE000204653F087FF18EE102A0146074620469C
:100BF00053F0D6FE18EE101A8046204653F052FEEF
:100C000008EE108A079B9A1B06D018EE101A204691
:100C100053F070FF08EE100A0121204653F0AAFE9F
:100C20000A9B002B064640F388801A460146204660
:100C300053F060FF069B012B064640F381804FF086
:100C40000008336906EB8303186976F008F9C0F1F0
:100C50002000059B184410F01F0000F09280C0F1A6
:100C60002003042B40F38A80C0F11C00049B034442
:100C70000493059B034405440593049B002B07DD67
:100C800018EE101A1A46204653F08EFF08EE100A8E
:100C9000059B002B05DD31461A46204653F084FFA4
:100CA00006460B9B002B6ED018EE100A314676F0EC
:100CB00025F9002867DA009B013B18EE101A009313
:100CC0000A220023204653F00FFE089B08EE100A6C
:100CD000002B00F0B181002339460A22204653F050
:100CE00003FE029B002B074600F38E80069B022B1F
:100CF00051DC89E0109BC3F136034BE7039B5E1E7A
:100D0000079BB342BFBF079B0796F21A0A9BB6BF69
:100D10009B189E1B0A93039BB8BF0026002BB7BFEE
:100D2000DDE90323DDE903359D1A002334E7079E3F
:100D3000049D089F3BE7079A67E7069B012B18DC99
:100D4000BAF1000F15D1CBF3130393B92BF0004385
:100D50001B0D1B0583B1049B01330493059B0133D9
:100D600005934FF001080A9B002B7FF46AAF012026
:100D70006FE74FF00008F6E79846F4E73FF47DAFE1
:100D800018461C3072E7039B002B37DC069B022BB6
:100D900034DD039B0293029B6BB93146052220464A
:100DA00053F0A2FD0146064618EE100A76F0A6F8AA
:100DB00000283FF7BBAD099B019DDB4300934FF03B
:100DC00000083146204653F06DFD002F3FF4A4AEDD
:100DD000B8F1000F05D0B84503D04146204653F086
:100DE00061FD3946204653F05DFD95E60026374605
:100DF000E1E70097374699E500002440089B002B67
:100E000000F0CA80039B0293002D05DD39462A4677
:100E1000204653F0C9FE0746B8F1000F5BD0796851
:100E2000204653F0FFFC054628B9874B024640F2A6
:100E3000EA21FFF73BBB3A690232920007F10C014D
:100E40000C3075F0ECFC01222946204653F0ACFE34
:100E5000019B03F10109DDE90123134405930AF025
:100E60000103B84604930746314618EE100A75F0A0
:100E70000EFF4146029000F1300A18EE100A76F09B
:100E80003DF83A4603903146204653F0FDFEC268D5
:100E900009F1FF3B054602BB014618EE100A76F049
:100EA0002DF8024629462046079253F0FBFCDDE967
:100EB000063243EA0201049B0B434D460FD1BAF1BF
:100EC000390F2AD0039B002B02DD029B03F1310A6C
:100ED0008BF800A075E73846BAE70122E2E7039BEA
:100EE000002B04DB06990B4304990B4322D1002A03
:100EF000EEDD18EE101A0122204653F055FE314661
:100F000008EE100A75F0FAFF002803DCE0D11AF0B1
:100F1000010FDDD0BAF1390FD7D139238BF800306A
:100F20002B461D46013B15F8012C392A71D00132A0
:100F30001A7046E7002A07DDBAF1390FEDD00AF141
:100F400001038BF800303CE7059B09F801AC99459B
:100F500047D018EE101A00230A22204653F0C4FC92
:100F6000B84508EE100A4FF000034FF00A02414660
:100F7000204606D153F0B8FC8046074609F1010926
:100F800072E753F0B1FC3946804600230A2220461E
:100F900053F0AAFC0746F1E7039B0293019D18EE6C
:100FA000100A314675F073FE00F1300A019B05F816
:100FB00001ABEA1A029B934209DD18EE101A0023D6
:100FC0000A22204653F090FC08EE100AE7E7029B45
:100FD000002BC8BF1D46019BD8BF01251D444FF003
:100FE000000818EE101A0122204653F0DDFD3146AC
:100FF00008EE100A75F082FF002891DC02D11AF089
:10100000010F8DD12B461D4613F8012D302AFAD041
:10101000D7E6019A9A4284D1009B01330093312391
:101020001370CEE6094BFFF795BA219B002B7FF496
:101030006EAA074BFFF78EBA029B002BAEDC069B15
:10104000022B3FF7A8AEA9E741980C0037970C0098
:10105000DA970C0008B50B88093B052B1CD8DFE894
:1010600003F003070B0F13170D4852F051FF08BD93
:101070000C4852F04DFFFAE70B4852F049FFF6E7F3
:101080000A4852F045FFF2E7094852F041FFEEE707
:10109000084852F03DFFEAE7074852F039FFE6E71B
:1010A000B07B0800C07B0800D87B0800F07B0800FC
:1010B0000C7C08002C7C08004C7C080010B506480D
:1010C0004CF064FD28B18268946814B1034A002191
:1010D000A047002010BD00BF687C0800551001002B
:1010E0004FF0000C944516D210B411F80C30434068
:1010F0001809094C205680EA0310C3B2C0F303104C
:10110000205680EA0310C0B20CF1010C9445ECD3D8
:101110005DF8044B70477047787C080008B50B6891
:1011200001330B60014B1B68984708BD680F011025
:10113000014B1860704700BF680F011000B583B005
:1011400002460B460021019101A9034800F0B6FCBC
:1011500003B05DF804FB00BF1D11010010B584B0A1
:101160000446019002910021039101A9054800F075
:10117000A5FC039B029A934201DA0022E2540398F1
:1011800004B010BD8951060070B516461C46022AEF
:101190008CBF00220122851A61F1000100294ADB7F
:1011A0004FF4C87200232846FBF7B0FC8C46294A4E
:1011B00002FB005E022E4BD96FF00201314401EBBD
:1011C000C10101EB01118A1C2349A1FB023204EB8E
:1011D00092044FEA9E0240F26D1303FB0E221F4B56
:1011E000A3FB0E3EA2EB5E1E0EEB04024FEACC0107
:1011F00041EA5071C3001B184CEB0101090141EA9F
:1012000013711B011B184CEB0101090141EA137119
:101210001B01181A61EB0C018C0144EA90648301F4
:10122000181A64EB0101821841F100010C481018F2
:1012300061F1000170BD6FF4C77028184FF4C872D7
:101240004FF0000361F10001FBF760FC8C46AEE754
:101250000921B3E770FEFFFFCDCCCCCC1F85EB514D
:101260009405F5FF84460268002005E000EB80004D
:10127000013203EB4000303813780449595C11F017
:10128000040FF3D1CCF80020704700BFA5950C00E7
:1012900070B582B0044600230360436083604B78DE
:1012A000252B02D04E1C01251FE0881CE37046E16F
:1012B000237843F004032370B5B1013614E023789A
:1012C00043F008032370F7E7237843F010032370FB
:1012D000F2E7237843F020032370EDE7237843F00F
:1012E00040032370E8E7002545B33378203B102BFB
:1012F000F9D801A252F823F0C9120100E712010047
:10130000E7120100D3120100E7120100E712010009
:10131000E7120100E7120100E7120100E7120100E5
:10132000E7120100BF120100E7120100B112010033
:10133000E7120100E7120100DD120100237803F03B
:101340004403442B5FD00196237843F0800323703D
:1013500033782A2B5CD001A8FFF784FF019B9E42C3
:101360000FD0237843F0800323706060DBB2C3F3B7
:101370004003002854DB00221343227863F3410228
:101380002270019B01931B782E2B14BF0023012395
:10139000627863F341026270002B43D0019B5A1CB8
:1013A00001925B782A2B3FD001A8FFF75BFFA0607A
:1013B0002378C3F3400300283EDB00221343227846
:1013C00063F341022270019803784C3B2E2B00F20C
:1013D0009E80DFE803F0919C9C9C9C9C9C9C9C9C28
:1013E0009C9C9C9C9C9C9C9C9C9C9C9C9C9C9C9C3D
:1013F0009C9C339C579C459C9C9C9C9C9C9C8A9C44
:101400009C9C9C9C830023786FF3861323709AE73F
:10141000637843F001036370334601330193B1E70E
:101420000122A9E70198CFE7637843F004036370D2
:10143000104601300190C7E70122BFE7421C437804
:10144000682B06D06378022161F3C60363701046EF
:101450001EE06378012262F3C6036370023017E076
:10146000421C43786C2B06D06378032161F3C603DA
:10147000637010460CE06378042262F3C603637065
:10148000023005E06378052262F3C6036370013021
:1014900010F8012BE270A2F14103372B00F2A0807B
:1014A000DFE803F05E9E9E9E5E5E5E9E9E9E9E9E1A
:1014B0009E9E9E9E9E9E9E9E9E9E9E4F9E9E9E9E9B
:1014C0009E9E9E9E5E9E4F3A5E5E5E9E3A9E9E9E53
:1014D0009E874F939E9E939E4F9E9E4F63780622BB
:1014E00062F3C60363700130D2E76378072262F3C8
:1014F000C60363700130CBE76378082262F3C6034A
:1015000063700130237843F002032370C0E76378EF
:101510006FF3C6036370BBE7A378012161F3020395
:10152000A370637803F07803402B10D0632A13D0A4
:101530002378C3F34002154365F34103237002B0DF
:1015400070BDA378022161F30203A370E9E721785B
:1015500041F001012170E9E71D1E18BF0125E7E7F1
:10156000A378042161F30203A370612A1AD0412AEF
:1015700016D00022637862F3C7136370DBB294F96C
:101580000120002A31DB03F07803182B0CD0002B4C
:10159000CED0402BCCD0237843F001032370C7E793
:1015A0000122E7E70122E5E763786FF3C603637082
:1015B000BEE7A378032262F30203A370637803F00B
:1015C0007803402BB4D10125B2E7A378032262F35C
:1015D0000203A370637813F0780FA9D00125A7E761
:1015E000237843F001032370A2E70125A0E700BFA1
:1015F0002DE9F04F83B004460D4601929A460C9EA9
:10160000D378324A13F802B00BF0030B6F2B0FD0D4
:1016100006D9702B0FD0782B10D14FF0100923E092
:10162000582B02D04FF00A091EE04FF010091BE0C2
:101630004FF0080918E04FF0100915E04FF00A09C3
:1016400012E0D2B23032D2B206F8012D3A46434609
:1016500020462946FBF7AAFABC4275F1000319D3CC
:10166000564517D904460D464FF000084F464A46E6
:10167000434620462946FBF799FA092AE1D9BBF1EE
:10168000010F03D0D2B25732D2B2DDE7D2B2373235
:10169000D2B2D9E7019B1B7813F0200F05D0B9F126
:1016A000080F06D0B9F1100F09D0304603B0BDE8DD
:1016B000F08F019A937843F008039370F5E7019A4D
:1016C000937843F010039370EFE700BFA5950C00EB
:1016D0002DE9F04F87B017461E46DDF844900246CC
:1016E0000B1E07DB397811F0080F14D02B2110984E
:1016F000017002E02D211098017097F80380C3F368
:101700000A54C3F31303049205935CB952EA03012C
:1017100028D1002107E011F0100FEED02021109801
:101720000170EAE7002140F2FF7084421CD0B8F15A
:10173000460F5DD0DB0243EA5253D2020492059376
:1017400023F000430593224343EAE473134307D095
:10175000002951D1A4F2FE34059B43F000430593C8
:1017600000256AE00121DEE7134324D19D4B18F8E0
:10177000033003F00303012B11D0692389F80030F3
:101780006E2389F8013009F10302662389F80230DB
:101790003B786FF386133B70129B1A6078E1492304
:1017A00089F800304E2389F8013009F103024623FD
:1017B00089F80230ECE78B4B18F8033003F0030391
:1017C000012B0AD06E2389F80030612289F80120AC
:1017D00009F1030289F80230DAE74E2389F8003074
:1017E000412289F8012009F1030289F80230CFE78C
:1017F0004FF066089EE7013C049B059ADB185241B6
:1018000004930592002AF6DAA4E7059B049A52088D
:1018100042EAC3725B080492059321460134B3F196
:10182000333FF2D29C0044EA92749000821843EB5A
:101830000403049205938C1C013D14F1020FE4DBB8
:1018400014E0049B0233059A42F1000204930592CE
:1018500004A854F0E9F8013C01350499059B4918A6
:101860005B4104910593013C002BF6DA002CE8DC87
:10187000C4F10401059A1C34A1F12000049BCB4063
:1018800002FA04F4234322FA00F00343CA4004930B
:101890000592B8F1670F14D0B8F1470F11D04FF08F
:1018A000000BB8F1660F2AD006F1010A102303934A
:1018B0009A4500DD9A4600224FF00063CDE90023EF
:1018C00029E015F1030F01DBB54211DDA8F1020893
:1018D0005FFA88F8002E00DD013E3B78C3F3401B21
:1018E00013F0200F08D1002EDBDD4FF0010BD8E7FD
:1018F000761B4FF06608F0E74FF0000BD1E715EBD1
:10190000060AD3D5102303934FF0000AD3E76846A5
:1019100054F0A5F8A2460AF1FF34BAF1000FF6D14F
:10192000049B009A9B18059A019942EB01020493CB
:1019300005924FF0FF3199426FF07043934106D307
:10194000B8F1660F38D1002D31DD4C460BE004A80C
:1019500054F085F80135F3E703A904A854F08BF897
:1019600004F8010B013D002D02DD039B002BF3DC8D
:101970007D6055463B7813F0200F01D1002E02DD2B
:101980002E2304F8013B002D35DA002E33DD6B42A7
:101990007B609E4200DA7E607B68F61A002BD4BF23
:1019A00000230123BA7863F34512BA7023E04C4652
:1019B000302304F8013BDDE703A904A854F05BF8E9
:1019C0004C4604F8010B302800D0013D3B7813F061
:1019D000200F01D1002E0EDD09F102042E2389F81B
:1019E000013008E0A5950C0003A904A854F043F8C1
:1019F00004F8010B013E002E02DD039B002BF3DCFB
:101A0000BE60BBF1000F09D00023BB6023461C461B
:101A100013F8012D302AFAD02E2A3DD0B8F1650FE7
:101A200002D0B8F1450F26D184F80080002D35DBB7
:101A3000A21C2B236370632D0CDD1E4981FB053135
:101A4000EB17C3EB611303F1300102F8011B6421B2
:101A500001FB1355184981FB0531EB17C3EBA103BB
:101A600003F13001144604F8021B03EB8303A5EBDA
:101A70004303303353707B68002B14DD4FF0010AB1
:101A8000BB786AF38613BB70129B1C600023237023
:101A9000484607B0BDE8F08F1C46BFE76D42A21C68
:101AA0002D236370C7E7BB68002BE9DD4FF0010A07
:101AB000E6E700BF1F85EB51676666662DE9F04FCC
:101AC00097B006460D46174605930024387800283F
